:020000021000EC
:108000000080002091BB0100D9BB0100DBBB010057
:108010000000000000000000000000000000000060
:10802000000000000000000000000000DDBB0100B7
:108030000000000000000000DFBB0100E1BB010008
:10804000E3BB0100E3BB0100F18D0100E3BB0100D4
:10805000E3BB01000000000091920100E3BB0100BE
:10806000E3BB0100E3BB0100E3BB0100E3BB010094
:10807000E3BB0100E3BB0100E3BB0100E3BB010084
:10808000E3BB010089840100E3BB0100E3BB010005
:108090006D850100E3BB01005DBB0100E3BB010096
:1080A000E3BB0100E3BB0100000000000000000092
:1080B00000000000000000000000000000000000C0
:1080C000164B002B00D1144B9D46402292029A1A67
:1080D000924600218B460F461348144A121A00F0AC
:1080E00067F80F4B002B00D098470E4B002B00D0A9
:1080F00098470020002104000D000D48002802D000
:108100000C4800E000BF00F02DF82000290002F02C
:10811000D9F800F011F8C0460000080000800020E7
:10812000000000000000000068200020A0260020C1
:108130000000000000000000084B10B5041C002BDC
:1081400002D0002100E000BF054B1868836A002BB5
:1081500000D09847201C00F033F8C0460000000013
:1081600044BD01000E4B70B500251E1C0D4CE41AD9
:10817000A410A54204D0AB00F35898470135F8E7A6
:1081800003F0D2FD084B00251E1C084CE41AA41075
:10819000A54204D0AB00F35898470135F8E770BD0D
:1081A000682000206820002068200020682000202F
:1081B000031C8218934202D019700133FAE770470A
:1081C000FEE7C046F8B54D465F4656464446F0B415
:1081D000224B1978994600292AD0214B0025984630
:1081E000204B214F01269A4603E00135EDB28D4226
:1081F0001ED243461B68321C9C46EC006444207827
:108200003B6882401342F0D093433B6001F036F864
:10821000331C22785146934009680B40011C914061
:108220008B420BD04B4601351978EDB28D42E0D32D
:108230003CBC90469946A246AB46F8BD616863785F
:108240008B460029EED0591E4C424C41211A4B421C
:108250004B41101CD9B2D847E4E7C046702000203B
:108260006C200020742000207C200020F8B5124DE6
:10827000071C286800F048FD002807D10124BC40F5
:108280000E4E3368234202D0A3433360F8BD381C3E
:1082900000F0F4FF0A4A136800280BD02343136050
:1082A000336828681C43074B00221968346000F0CB
:1082B0009DFCEBE7A343F2E7782000207C20002020
:1082C0007420002068200020F0B54F464646C0B418
:1082D000141C071C83B00E1C0720042A04D803B00A
:1082E0000CBC90469946F0BD00F0ACFE00282FD0A3
:1082F0001A4B1B4A1F601B4B751E1E701A4BEDB2AA
:108300001C6000231360194A1360002E1AD0184B0A
:1083100001AC994603230026984600E01D1C424606
:10832000EB00FB182270A670E6709A7818786270DD
:10833000211C4A4600F08EFE0028D0D16B1EDBB215
:10834000002DEBD100210B4A0B4800F01BFCC6E7C7
:1083500000F03EFE0028CBD0C1E7C0466C200020D4
:108360007420002070200020682000207C20002045
:108370006D820100C58101007820002070B5094D93
:108380002B78002B0BD00024074E3268E300985C5A
:10839000012100F025FF2B780134A342F5D80020FD
:1083A00070BDC046702000206C200020BFF34F8FAE
:1083B000024A034BDA60BFF34F8FFEE70400FA0571
:1083C00000ED00E0031C10B59C888068DA68121A82
:1083D0000420944200D210BDDA68002014401A68CC
:1083E0001155DA680132DA60F5E7C04610B58468E5
:1083F000C268031C0520944209D098689A880240FC
:108400001868825C00200A709A6801329A6010BD78
:1084100080218023184A8902D1508022D221174B13
:10842000520289005A5040395A5001222F205A6076
:108430000138C046C046C046C046C046C046C046D9
:10844000C046C046C046C046C046F1D19A6000232F
:108450000B4A2F2013600138C046C046C046C046B4
:10846000C046C046C046C046C046C046C046C046DC
:10847000F1D1044A1370704700E100E000100140A0
:1084800080200020A8200020A021F0B5002247462F
:108490002C4B490080B45A5004315A5004315A5080
:1084A00004315A504C395A5004315A50264A1768F0
:1084B0007A1C38D0254A00259B58254A254E146839
:1084C0001C1B254B2402240A984601E07B1C1BD070
:1084D0003268FB009446DB199B0063445A68A24251
:1084E00012D8A41AAD181F6A9A69D96943461B6845
:1084F000002B1BD0101C98470028E7D00021002239
:10850000FFF754FF7B1CE3D1144B15491A780B7805
:108510009A420ED0134A9B009D5080218023124A1C
:1085200049035B00D15004BC9046F0BD081C904745
:10853000CCE70132D3B2022B01D00B70EAE7002363
:108540000B70E7E7001001409820002004050000B0
:1085500080200020882000208420002094200020FB
:1085600095200020A020002000E100E0F0B55F464B
:1085700056464D464446F0B4C94BCA4A1B68CA49E0
:108580008DB0079309781378994200D154E20133F2
:10859000DBB2022B00D11AE21370C44A9B009B5835
:1085A000079A9C46624406931302BD4A1B0A136055
:1085B00001230893BE4B00251B681E1C0B93BD4B6B
:1085C0001B78191C0A1C0393BB4B013A1B68D2B2DF
:1085D0000593BA4B02911868B14B02921B680A933B
:1085E000B74B1B780993331CFF2A3DD00599D20065
:1085F000894691444A46494612784978B4460190E2
:108600004E468A4228D077685400A418B8460132F2
:10861000B778D2B2BF1A781E8741E4007F42444443
:108620003A402778022F00D1DAE0032F00D0D4E0BF
:108630006046013000D1D0E063460198D900CB18E4
:108640009B00C3181D751B6A591CF7D11F1C019094
:108650007178BC468A42D6D1029A0198013AD2B2C8
:1086600066460292FF2AC1D1694624240919944A18
:108670000978059611708A4A0A9911608C4A13602C
:10868000089A002A00D0A4E10B9B059F9B1B5A1E51
:108690009341DBB2069301235B429C46864B1B68E9
:1086A0000493864B1E687E4B1B689B46804B1B6861
:1086B0000193834B1B78029300239946039B013B54
:1086C000DBB20393FF2B00D1FEE0049ADB0092465D
:1086D0009A446346013340D06346DC006444A400FE
:1086E0003419236AE0469C46A268E1685B467548F7
:1086F000D31A1B021B0A834266D85B1863604B4681
:10870000A360E36001232375023B23627B1C00D13D
:10871000BDE0FB00DB199B00F318606859683D1C45
:10872000884209D8A5E0D3009B189B00F31859682C
:10873000814200D3A8E0151C1A6A401A531CF2D1DA
:10874000EB005D19434622623A1CAD00751960606A
:108750002B62171C63460133BED1534652461B7829
:1087600052789A42AAD052465268580090465246D1
:10877000C0180133DBB213709278C00040449A42B3
:1087800000D189E043683A1C98460378012BE0D178
:108790004346DC004444A4003419237D002BD8D187
:1087A0008268A260C168E160056925614069E06195
:1087B000029800289AD0A36000225B464148D31A51
:1087C0001B021B0A834298D95B469A1A1202120AAC
:1087D0008A4256D2891A616091E76746BC4639E7FA
:1087E0006468E000071980460198BF008146BA46D8
:1087F000CA445046007D67468146002800D128E7DC
:108800006146013114D0644500D1CEE00492019854
:108810009B4602E09C4210D01F1CF900C919890038
:1088200041180B6A5A1CF5D15B466746049A0190C1
:1088300051460D757178BC460CE7049A01905B4671
:10884000BC4200D19CE0444480466746A4004444B6
:108850006068246A84460C62611CE9D00198E100DA
:10886000804609198900414448681F1C60444860DB
:10887000DEE7091A59604246434627620193171CF6
:1088800068E74B4663603AE7091A596058E7434680
:1088900042460193171C5DE753464A461A7071E73A
:1088A000802000209420002095200020A02000207F
:1088B000982000208C20002090200020882000207C
:1088C0009C200020FEFF7F00644B019A1A60059BEC
:1088D0009F4200D16DE07B1C00D1BBE0604BFA00F1
:1088E000D7191B68BF00DB195C685E485E4B5F4DA3
:1088F000C1585F4B2E781B68CA1A1202120A033243
:108900009046002E1FD18026D1277602BF00C65187
:10891000403FC651C0228027564EBF025200B7507A
:108920003760012606602F200138C046C046C04689
:10893000C046C046C046C046C046C046C046C04607
:10894000C046F1D12E704246A24200D2221CA8207D
:10895000D2181202130A434AC000135042485B1A4D
:1089600012581B02521A1202120A03321B0A9A42AE
:1089700023D9802180233F4A89025B00D1501CE02B
:108980006346DB00634484460C1C9B0063441B6A03
:108990001F1C581C00D05BE70127324887604846FF
:1089A000099000201F1C0A9052E754465346514636
:1089B000EDE7069B002B00D08DE700232E4A1370B5
:1089C0000DB03CBC90469946A246AB46F0BD002394
:1089D000E2E5234A0024176801225242944600220D
:1089E00060469046721C1FD0F20092199200BA188D
:1089F0005168069DA94223D86B1A069343465360DB
:108A000043466418116913758C46136A002908D00F
:108A10000799106261180902090A91606146301CC9
:108A2000D1601E1C721CDFD10C4A844613600123E6
:108A300005960693371C31E6002306930893B9E5A3
:108A400084460648491B036001230596516006933E
:108A5000371C23E6FFF7DCFCAFE7C0469820002078
:108A6000882000200010014004050000A8200020FC
:108A70008020002000E100E09C200020F8B51E1CB2
:108A8000051C0F1C141C0720B30700D0F8BD002ED6
:108A9000FCD0FFF7BDFC2E4B069A1A602D4B1F70C1
:108AA0002D4B1E60002F51D0331C0022F900C81935
:108AB000800030181A701A7524338342FAD1C9190C
:108AC000890073180321181C244A183011706100A2
:108AD0000919234AC9005860401813604118002240
:108AE00059610121D86080209C709C729C74C524BF
:108AF0001A705A701A725A721A745A74194B49427F
:108B00001960194B40031A70184BA4001A70184BC7
:108B10008132FF3298501A590131FF318A433F396F
:108B20000A431A51A1221860C4201249D2008D5064
:108B300080001C58104A2240C024240222431A50AC
:108B40000E4B0020CA580E4B1A609FE70021B6E773
:108B50008420002096200020882000208C200020E7
:108B600090200020982000209420002095200020B4
:108B700000E100E000100140FF00FFFF04050000DD
:108B800080200020F0B5174B94461E68002E1DD0A3
:108B9000002A19D0002817D0134B1F78002F11D0AE
:108BA0003378002B14D0341C0023243407E0261C17
:108BB0002434251C243D2D781A1C002D09D00133A6
:108BC000BB42F4DB0420F0BD0720FCE70820FAE7F5
:108BD00000220123337063467170B361026000208C
:108BE000F1E7C0468820002096200020F0B54746D7
:108BF00080B43D4B1C68002C47D03C4B1D780723AC
:108C0000854203D8181C04BC9046F0BD0429F9D94C
:108C1000C3001B189B00E41825780823012DF1D10F
:108C200063780024A046012B31D0314B10245B68BF
:108C3000DB05DB0D2FD12F4B1D682D196B78AC7820
:108C40005E1C341B671EBC41644226402C78B44233
:108C50001FD05C00E3186C68DB00E4180423002CD0
:108C6000D0D0033B23706060234B2448C358E1609D
:108C7000A36043468021236180236261204A5B0018
:108C800049036E70D1500023BCE70823BAE7884639
:108C9000CBE70423B6E7103BDDB26CB2002C13DB4C
:108CA000A408174DC034A400645903252B40DB00F1
:108CB000DC4023069B0FDBB20024012BBBD0083421
:108CC000032BB8D00834B6E70F230E4C2B40A44634
:108CD000083B9B089B0063445C6803232B40DB003C
:108CE000DC40E3B29B09E6E78820002096200020C4
:108CF00000ED00E09020002004050000001001407D
:108D000000E100E018ED00E030B5334B1A68002AAE
:108D100034D0324B19780723814201D8181C30BD5A
:108D2000C3001B189B009A5C0823012AF6D12C4B28
:108D30000F325B68DB05DB0D24D12A4B19688918DB
:108D40004B788A785C1CA21A551EAA4152421440E4
:108D50000A78A24214D05A00D3184A68DB00D2180D
:108D60000423002ADAD0023B137050604C7080213B
:108D70001D4AFE334903D1500023CFE70823CDE736
:108D80000423CBE7103BD9B24AB2002A13DB920886
:108D90001549C0329200525803210B40DB00DA40E3
:108DA00013069B0FDBB20022012BC6D00832032B27
:108DB000C3D00832C1E70F230C4A0B409446083B4E
:108DC0009B089B0063445A6803230B40DB00DA4096
:108DD000D3B29B09E6E7C0468820002096200020F9
:108DE00000ED00E09020002000E100E018ED00E040
:108DF000842210B5414B5200995884B000292DD1DE
:108E00008E223E4B52009958002914D192223B4B9E
:108E10005200995800290CD0002199509021C90086
:108E20005A5802A85A5002230370354B42601B68FF
:108E3000984704B010BD0021324C99502278D2B22C
:108E4000002AE3D0022A21D9032ADFD1023A217075
:108E5000DA605A60A022D2009950D7E700219950D9
:108E6000A322D2009958284CC9B2201CFFF7AAFAB5
:108E700000282AD1A268E3689B1A012BC0D1204A9E
:108E800002AB18701268181C9047B9E71F48816838
:108E9000C26891422DD02278022A01D001229A6024
:108EA0006B46D91DFFF7A2FA002817D1C2218022F4
:108EB000124B89005A506946C87915495850022109
:108EC0002170C12189005A50A0E7012202AB1A701B
:108ED0000B4A03901268181C904791E70123074A38
:108EE000D3602370032302A80370054B1B689847C7
:108EF0008CE70122DA602270F4E7C04600200040CF
:108F0000AC200020C0200020C4200020B020002081
:108F10001C05000082B00190019B002B14D0019B26
:108F20000A48013B01930138C046C046C046C046CE
:108F3000C046C046C046C046C046C046C046C04601
:108F4000F1D1019B002BEAD102B07047E70300008A
:108F5000F0B5002820DBFF271B4B03229C463B1C5F
:108F60008408C026C0B20240D2009340A4006444EA
:108F7000B600A5599D438B013B409340191C2943E2
:108F8000A1511F2318401E3B8340C022181C0E4BCA
:108F9000520098501860F0BDFF260C4A03249446F6
:108FA000321C0F23C0B20440E400A2400340083B3F
:108FB0009B089B006344DD6995438A013240A240CF
:108FC000111C2943D961DCE700E100E000ED00E07D
:108FD00010B51A4C08202378002B00D010BD4C226D
:108FE000FF21013BA3540132A1540132A3540132A9
:108FF000A3540132A354E362013223636363A36386
:10900000E36323646364A3640238FE39A35463609A
:10901000A360E36023616361A361E3612362636230
:10902000A362FFF795FF8021C123054A9B00090633
:10903000D150012300202370D0E7C046D420002067
:1090400000600040024B1878431E9841C0B2704740
:10905000D4200020F0B5474680B45E4C0825231884
:1090600028331E797F2E03D8281C04BC9046F0BDFF
:10907000CD78AC46002D4CD06568013500D19EE01E
:10908000042300269846731C9D0067197F680137EA
:1090900048D0B31C98453AD99D0067197F680137BD
:1090A00040D0F31C984532D99D0067197F6801377D
:1090B00038D0331D43452AD29D0067197F68013798
:1090C00030D0731D984522D99D0067197F680137FC
:1090D00028D0B31D98451AD99D0067197F680137BC
:1090E00020D0F31D984512D99D0067197F6801377C
:1090F00018D0013398450AD99D0067197F68013758
:1091000010D00936B04502D9A36A013308D004252E
:10911000AAE76569013556D00A2304269846B2E7C6
:10912000092324252718DEB2283765193E716A60A5
:109130006246002A02D1E318443318718B78002B61
:1091400015D1031CA0254A78C133FF3392009B0040
:10915000ED055A51CB78002B15D176B2A4194434C1
:109160000B7822799B011343237100257CE7A02211
:10917000D2059446E025022783006344ED005A5946
:10918000BA435A51E6E7A22476B2134BB600F3185D
:10919000E4000A781D591149000229401951F821AB
:1091A00049010840061CC0211004021C301C890221
:1091B0001D590A40104328431851002554E7002642
:1091C0001E716260BAE704251D712E1C62612B1CA2
:1091D000B1E7C046D420002000600040FFE0FCFF63
:1091E00030B5234B1A182832147962B2032A18DDDD
:1091F0009B1844331B799B09032B2CD0012B33D0B4
:10920000C025AD02A023DB059C46E023800060441E
:10921000DB00C45817492140C150C2582A43C250EC
:1092200030BD032CFCD8144BA2259C460123900092
:109230006044ED0044591C434451101C6446002511
:109240004030800080B205510029E9D09340C1220E
:109250009200A350E4E7A223A022DB00D205D2585B
:10926000012383401A42CBD18025AD02CAE7C04614
:10927000D4200020FFFFFCFF00600040A223A022BA
:10928000DB00D205D358C340181C01231840704797
:10929000F0B544465F4656464D46F0B4834A83B027
:1092A00013680024012B64D0814B1A68012A6CD00A
:1092B000804B1A68012A00D177E07F4B1A68012A97
:1092C00000D182E07D4B00271A68012A00D18DE091
:1092D00023070BD0E30700D59EE0A30700D5AAE043
:1092E000630700D5B5E0230700D589E0002C06DB35
:1092F00003B03CBC90469946A246AB46F0BDE02385
:10930000DB009846C0239B0200246D4D994605E082
:10931000032B00D1ADE00134062CE9D0231C4C33E3
:10932000E95CC023081C98432B1828331B795BB2D7
:10933000032BF0DD9B00EB185A68002AEBD08B0959
:10934000A021C9058C46019383009C444146634695
:109350005B5849460B40012181401B0C0F42D7D07E
:10936000022BD8D1019B032B00D19BE001999047A0
:10937000D1E7C1215348890041580B4294D04C4B4E
:1093800014601A680134012A92D1C1224D49920019
:10939000895802220A4200D18AE700211960454B10
:1093A00014431A68012A00D087E7C1224549920078
:1093B000895804220A4200D17FE7002119603E4B00
:1093C00014431A68012A00D07CE7C1223D4992006B
:1093D000895808220A4200D174E700211960374BEE
:1093E00014431A680027012A00D071E71F60802308
:1093F0001B061C43A022A223D205DB00D75867E737
:10940000304A314B2E4DD058D158C0048903C00E7C
:10941000890F2B69984769E7A2232A4ADB00D058B5
:10942000D158274DC00489036B68C00E890F984737
:10943000A30700D454E7254B224A214DD058D158D8
:10944000C0048903AB68C00E890F9847630700D436
:1094500049E7A3231B4ADB00D058D158184DC0045C
:109460008903EB68C00E890F9847230700D43DE7B6
:10947000C6E7019B032B00D078E780239B029A4626
:10948000414663465B5846469B465946104B0B4047
:1094900061468B51634651469B5919430B1C6146EB
:1094A0008B5163E7C0239B029A46E9E700610040C5
:1094B00004610040086100400C6100407C61004094
:1094C000D4200020006000401C05000014050000AE
:1094D000FFFFFCFF074B1A780823002A01D1181C54
:1094E0007047002804D0044B5B7803600023F6E744
:1094F0000E23F4E7F421002028210020A02210B53B
:10950000064BD205D15880231B041C1CA1208C4380
:109510000B400349C0001450535010BD0405000017
:109520000C050000F8B54F464646041CC0B411288F
:1095300009D012283AD013283AD014283AD00CBCBB
:1095400090469946F8BD0025012911D000291FD069
:109550000229F4D16B005D19204B5D196E78002E45
:10956000EDD01F4B1B68002BE9D0301C9847E6E775
:109570001A4B6F00984642467B19D65C43445B7891
:10958000002B19D17F194744BA78164B5A55E6E794
:10959000154B1868FFF7B8FB104A6B005B19D3181E
:1095A000104A9B78565D9E42C9D1D8E70125CBE78A
:1095B0000225C9E70325C7E70B4B18680B4B1B684F
:1095C0009900C9180A4B49001A1C9946FFF70EFB6F
:1095D0000028D7D14B461C70D4E7C0461822002083
:1095E0000C220020FC210020002200200422002068
:1095F000F5210020F8B5A84B1B68DB0700D4F8BDA7
:10960000A64A1478182CFAD8A549A300CB589F462F
:10961000A022A44BD205D1588023DB031C1CA1201F
:109620008C430B40A049C000145053509F4B002264
:1096300018689F4B1B689900C918FFF7D7FADEE737
:10964000A022984BD205D1588023DB031C1CA120FB
:109650008C430B409449C00014505350934B00224C
:109660001868934B1968FFF7C1FAC8E7A023A12235
:10967000B021DB05D20049048024995000218A489A
:10968000240419501C509950B9E7A023F021DB05A0
:109690004904854A99500021043A9950AFE7A02126
:1096A000A120B0230027F026C9055B04C0007E4D31
:1096B0000B507C4B4F51CB587604734080263604B8
:1096C000334000D1CBE00E504F51032C00D1DDE0F0
:1096D0002821147027E0A023A1229021DB05D200CD
:1096E0004904C024995000216F48240419501C508B
:1096F000995084E7A021A120B0230026F025C905B8
:109700005B04C000684C0B50664B0E51CB586D0487
:109710006B4080252D042B4000D1AAE00D5004237E
:109720000E5108211370614B00221868604B1B68B2
:109730005943FFF75BFA62E7A021A120B02300267E
:10974000F025C9055B04C000574C0B50554B0E511A
:10975000CB586D046B4080252D042B4000D190E048
:109760000D5005230E512821DCE7524D2868FFF7E4
:10977000CBFA12231C1B6DD000286BD1012C0DD00D
:10978000C8306421604302F02DFA494B2D681B68F4
:1097900000224343281C191CFFF728FAA02380212C
:1097A000DB05090475E7A023B021DB054904A122EC
:1097B000D200995000213C4A995020E7A021A120D5
:1097C000B0230026F025C9055B04C000364C0B50C1
:1097D000344B0E51CB586D046B4080252D042B402B
:1097E00044D00D500E5106231370304B00221868E0
:1097F0002F4B19684900FFF7F9F900E7A023F02182
:10980000DB054904D3E7A023A122D021DB05D20048
:1098100049048024995000212348E40319501C5026
:109820009950ECE6A021A120B0230026F025C9051F
:109830005B04C0001C4C0B501A4B0E51CB586D04EE
:109840006B4080252D042B4018D00D500E5107235E
:10985000137003E7A0238021DB050904A7E74E511D
:109860000B50032C15D0042114705CE70D510B50E4
:10987000B9E70D510B500221042353E70D510B5052
:10988000E5E70D510B50042105234BE7122114701D
:1098900049E70221147046E7F82100201022002039
:1098A00048BD0100040500000C0500001422002042
:1098B000042200200822002008B50378112B06D0CE
:1098C000122B12D0132B12D0142B12D008BD002350
:1098D0005A00D318084AD31858780028F6D0074BF6
:1098E0001B68002BF2D09847F0E70123F0E7022332
:1098F000EEE7113BECE7C046182200200C220020C6
:10990000002303280DD8A223A022DB00D205D258C1
:10991000054B8000C0580123834093435A1E934156
:10992000DBB200200B70704710BE010070B5CC4B4D
:10993000041C1B680020DB0700D470BD182C31D834
:10994000C84AA300D3589F46A022C74BD205D1587E
:109950008023DB031C1CA1208C430B40C349C000A7
:1099600014505350C24B00221868C24B1B68990018
:10997000C918FFF73BF9E0E7A022BB4BD205D1584D
:109980008023DB031C1CA1208C430B40B749C00083
:1099900014505350B64B00221868B64B1968FFF7A5
:1099A00025F9CAE70020C8E7A023A122B021DB05E2
:1099B000D2004904802499500021AC482404195055
:1099C0001C5099500822AC4B00201A70B5E7A02318
:1099D000A1229021DB05D2004904C0249950002126
:1099E000A248240419501C5099501622A24B002062
:1099F0001A70A2E7A022A121B0230025F024D205ED
:109A00005B04C90099485350974B1550D3586404D0
:109A1000634080242404234000D10DE154500821E8
:109A200015500422944B1A709AE0A022A121B02371
:109A30000025F024D2055B04C9008C4853508A4BA2
:109A40001550D3586404634080242404234000D17B
:109A5000F6E05450155028210522E3E7A022A12169
:109A6000B0230025F024D2055B04C9007F48535081
:109A70007D4B1550D3586404634080242404234054
:109A800000D1D6E05450155006227B4B1A70784B0B
:109A900000221868774B19684900FFF7A7F84CE7D0
:109AA000A022A121B0230025F024D2055B04C90027
:109AB0006E4853506C4B1550D35864046340802457
:109AC0002404234000D1B1E05450155007226A4BC2
:109AD0001A705FE7A023F021644ADB05490499501E
:109AE0000021043A9950002027E7A023A122B021A9
:109AF000DB05D20049048024995000215B482404EE
:109B000019501C50995014225B4B00201A7014E716
:109B1000A022B021A123D2054904DB00D1500023AB
:109B2000524900205350544A137006E7A022A12145
:109B3000B0230026F025D2055B04C9004B485350E2
:109B4000494B1650D3586D046B4080252D042B4093
:109B50007BD055501650032C7DD02821464B1C70CD
:109B6000434B00221868434B1B685943FFF73EF8EC
:109B7000E3E6A023A122D021DB05D2004904802402
:109B8000995000213948E40319501C50995015226E
:109B9000394B00201A70D0E6384D2868FFF7B4F82A
:109BA00012231C1B37D0002835D1012C0DD0C83012
:109BB0006421604302F016F82E4B2D681B680022CA
:109BC0004343281C191CFFF711F8A0238021274AC2
:109BD000DB05090499500021043A9950ADE6A02311
:109BE000F021A122DB054904D200995000211F4A2F
:109BF000002099501322204B1A709EE6A023F021DA
:109C00001A4ADB05490499500021043A99501A4B2D
:109C100000201C7091E6A0238021A122DB0509040D
:109C2000D20099500021114A995086E614505350A1
:109C30004CE71450535027E7145053500221F0E6DC
:109C40001450535004210522ECE615505350032CB8
:109C500003D0042182E7122180E702217EE7C0467B
:109C6000F8210020ACBD0100040500000C05000037
:109C700014220020042200201022002008220020AC
:109C8000234B10B51960234B041C1860224B1A603B
:109C9000830712D50D22214B21481A700132DA7048
:109CA00001329A7101325A724A080421FEF70CFB04
:109CB000002820D0E30703D41CE0C3070ED5002002
:109CC000A023F022A1210024DB055204C9005A5030
:109CD00014495C500C315A5000280BD11248002115
:109CE000124AFEF74FFF002804D111480121114A02
:109CF000FEF748FF10BDFEF741FB0028DAD10E4801
:109D000000210E4AFEF73EFFE307E5D5D8E7C0463F
:109D100004220020F82100200C220020182200201C
:109D200020BE01000C05000014220020F595010062
:109D300008220020FD94010000220020B9980100B3
:109D4000031C0720032B00D97047012A13D00129D7
:109D500017D0002908D0022919D15800C3180D487E
:109D6000C3185A700020EFE75800C3180948C318F9
:109D70009A700020E8E700220129E8D11A1C0D3270
:109D8000D2B258000349C3185A540020DCE7072018
:109D9000DAE7C04618220020E0231D4ADB00D25833
:109DA0001C4B1A400023C10701D5C0239B0213435B
:109DB000E0221749D2008B50174B9A58154B1A4086
:109DC0000023810701D5C0239B021343E0221249DF
:109DD000D2008B50114B9A580E4B1A40002341076A
:109DE00001D5C0239B021343E0220C49D2008B50C3
:109DF0000B4B9A58074B1A400023010701D5C0238B
:109E00009B021343E0220649D20000208B5070478A
:109E100044000050FFFFFCFF480000504C00005081
:109E20005000005008B50320FFF7B6FF031C0020C8
:109E3000002B02D0062B00D0181C08BD10B50388DB
:109E4000102B08D0112B05D1294A1368013B136050
:109E5000002B07D010BD264C2368002B11D00133F6
:109E60002360F7E7002002210122FFF769FF0028A5
:109E70002BD0072829D01F4B1B68002BEAD098470E
:109E8000E8E7002000210122FFF75AFF002808D050
:109E9000072806D0174B1B68002B00D09847236873
:109EA000DDE7012002210722FFF74AFF002801D049
:109EB0000728EFD1002002210422FFF741FF0028EC
:109EC000EDD00728E6D12368C9E701200221072247
:109ED000FFF736FF002801D00728CCD10020002151
:109EE0000A22FFF72DFF0028B4D00728C3D1B1E71D
:109EF000282200202422002010B5244B82B00C1E02
:109F0000186018D06B460020991DFFF7F9FC002857
:109F100001D002B010BD6B460130D91DFFF7F0FC37
:109F20000028F6D16B46DB79002B29D16B469B7953
:109F3000002B28D12370164B1B68002B01D000206A
:109F4000E7E7002002210122FFF7FAFE002801D0F6
:109F50000728DED1012002210722FFF7F1FE0028A9
:109F600001D00728D5D1002000210A22FFF7E8FE02
:109F70000028E4D0C31F5A1E93415B421840C8E733
:109F800002232370D7E70B232370D4E72422002079
:109F90002822002076DF70477ADF70477CDF704729
:109FA0007FDF7047A9DF704760DF70473CDF704795
:109FB00048DF704708B500210022FEF7F7F908BD19
:109FC00008B50378002B00D008BD064B3B2118884C
:109FD000FFF7E0FF0028F7D000210022FEF7E6F9A6
:109FE000F2E7C0466420002010B5041C01F0F8FA26
:109FF0002948211C01F054FB2388112B36D024D989
:10A00000132B14D0522B09D1244B00211888002285
:10A010000023FFF7C7FF002812D12388192B21D076
:10A02000201C01F065F8201CFFF708FF10BD1B4B3A
:10A030008521188800220023FFF7B2FF0028ECD00A
:10A0400000210022FEF7B2F9E7E7102BE6D1082045
:10A05000FFF76CFC002819D1104BA2881A802388C6
:10A06000192BDDD1022000F023FFDCE70020FFF7F1
:10A070005DFC002805D10122084B52421A8023883A
:10A08000CCE700210022FEF791F9F4E7002100223D
:10A09000FEF78CF9E0E7C04688220020642000200B
:10A0A00008B5072820D00A2810D0042800D008BD01
:10A0B000144B13211888FFF76DFF0823021C9A43E5
:10A0C000F5D000210022FEF771F9F0E70020FFF73C
:10A0D0002DFC002810D1FFF7A5FE002807D1FFF7BF
:10A0E00065FF0028E3D0ECE701F074F8E5E7002114
:10A0F0000022FEF75BF9F2E700210022FEF756F995
:10A10000E9E7C0466420002008B5002807D00228EF
:10A1100004D10130FFF70AFC00280DD108BD002052
:10A12000FFF704FC00280CD1FFF77CFE00280DD1BE
:10A13000FFF73CFF0028F1D000210022FEF736F99E
:10A14000ECE700210022FEF731F9EDE700210022C3
:10A15000FEF72CF9ECE7C046F0B5474680B4002A7C
:10A1600000D199E000231D1C4C4C081D84425D4128
:10A17000281C251DA9425B410343082090428041D1
:10A180004042184200D180E08B0700D07DE0131FD1
:10A190009B080133551E9800022D00D86EE00D6813
:10A1A0002560012B0DD04D686560022B09D08D68AC
:10A1B000A560032B05D0CD68E560042B01D00B69A9
:10A1C000236182420BD00B5C2354431C934206D282
:10A1D000CD5C0230E554824201D90B5C23542378D4
:10A1E0006F2B02D004BC9046F0BD6378702BF9D180
:10A1F000A378652BF6D1E3786E2BF3D1211C92B2B4
:10A20000274801F081FBA024A123D022E405DB0034
:10A2100052048020E25000222249C00362500325EC
:10A220006050E250012100231F480133202B0BD046
:10A23000021C1A411142F8D01A1CC132FF3292009E
:10A2400001331551202BF3D10225A024174B2A1CD2
:10A25000A12796209846E405E358124E9A43FF0042
:10A260002B40E2514000A351FEF754FE43462A1C06
:10A27000E3589A432B40E251A351B3E700200B5C13
:10A280002354431C9342A3D3A9E70023C85CE054A2
:10A2900001339A42FAD1A2E7004CA0E72C22002019
:10A2A000882200200C0500000200E00004050000E8
:10A2B00008B5031C0A1C0248191CFEF777F808BDF4
:10A2C000EFBEADDE002370B5A2B0009300200521E3
:10A2D0000522704BFEF7D2FB002803D0002100229C
:10A2E000FEF764F803206C496C4AFFF7C9FC0028AC
:10A2F00003D000210022FEF759F816AC0020211CE3
:10A30000FFF7FAFD002803D000210022FEF74EF8E7
:10A31000082063494822002301F0F0FB002803D005
:10A3200000210022FEF742F80822201C0021FDF740
:10A330003FFF01222378201C93432370FFF734FE54
:10A34000002803D000210022FEF730F8554801F024
:10A35000FBFB002803D000210022FEF727F80F2185
:10A3600001220AAD2B78504E8B43134310220B4031
:10A370001343301C2B7001F0D0FC311C82B2281C1E
:10A38000FFF70CFE002803D000210022FEF70EF894
:10A39000201C00210822FDF70BFF102323802C3303
:10A3A00063800023A3809133FF33201CE380FFF7F9
:10A3B000F3FD002803D000210022FDF7F7FF002164
:10A3C000201C0422FDF7F4FE384B3948211C16935B
:10A3D00001F096F9002803D000210022FDF7E6FFE6
:10A3E00000213022281CFDF7E3FE02230026302244
:10A3F0002B7000210333201CEB70AE70FDF7D8FEEC
:10A40000012323822B4B02AA6361012396601372FE
:10A410004023D36074331361566056619661D661F0
:10A42000281C0096211C244B029600F083FC002877
:10A4300003D000210022FDF7B9FF1C22201C0021BF
:10A44000FDF7B6FEA02292026260F0220023120302
:10A45000A26003221693E3812374184B201C6361CE
:10A46000174B2273A36101F07FF8002803D000216D
:10A470000022FDF79BFF022000F01AFD002803D107
:10A48000FFF796FD0028FBD000210022FDF78EFF8C
:10A49000F6E7C046A4220020CD0C0000A1A00100D8
:10A4A00040220020E99F010040BE010059A10100A7
:10A4B000882200206020002009A10100C19F010026
:10A4C000B59F010072DF704779DF70477DDF70470D
:10A4D00065DF7047F0B55F46564644464D46F0B4DA
:10A4E00085B09A460E9B061C98461B788B460193B6
:10A4F0000388171C002B40D00023994602AB002490
:10A50000DD1C03E033880134A3422CDD7368A10015
:10A510009C460422614403A801F0F6FB03A8291C11
:10A520000022FFF7D5FF002828D12B78BB42E9D1C4
:10A530004B46002B29D043461A78D3191F2B34DC05
:10A54000524403A8291CFFF7C3FF002816D1434635
:10A550001A782B780134D318424613700123994698
:10A560003388A342D2DC4B46002B06D043465146EB
:10A570001B78019A013B9B1A8B54002005B03CBC10
:10A5800090469946A246AB46F0BD43461B78DA1981
:10A590001D2A0ADC41469A1C0A705246594601336C
:10A5A000DBB2D15443461A78CAE70C20E6E7C0462E
:10A5B000F0B556464D4644465F460023F0B497B08A
:10A5C00005AD02AA041C0E1C2B705373002800D189
:10A5D0001EE1C3785B0700D4B2E00378002B00D003
:10A5E000DAE18378002B00D00BE20023E278002A26
:10A5F00000D0ADE06268002A0FD011781C2B00DD7E
:10A60000FEE002220A2006AFFA545A1CD2B2B85415
:10A61000DA1C0233DBB22A70F9542389002B00D0F4
:10A620000BE2238A002B00D0A6E2238B002B00D064
:10A63000BBE2236A002B4BD02A780C20911D8A465E
:10A640001F2900D97DE0198805388B46052978D95E
:10A650006C4F6946BC46DC4467468F818F89BC4697
:10A66000694FB846BC456CD95F88BC46052F68D990
:10A67000644F67448F81BFB2474562D9634FBB4582
:10A6800003D0BC4501D0E3455BD8052006AFB854E4
:10A69000901CC1B2297089466946501C0873C0B22B
:10A6A0008446122080466046414639541988043257
:10A6B0008C4649467818614601706146090A417026
:10A6C0005B88D2B2BF183B701B0A7B7053462B705D
:10A6D000636A9846002B2BD01B792A789C4602335C
:10A6E000911CDBB2CB180C201F2B2ADC634606AF73
:10A6F0000333BB54531CDBB2F330F8544346C9B2A6
:10A7000029701B8879180B701B0A4B704346043262
:10A71000D0B228709A88002A0AD0996800290FD0F0
:10A72000381801F0F1FA43469A882B78D3182B7029
:10A730002C23E15C06AF002900D0B8E1B94669E0FE
:10A74000072017B03CBC90469946A246AB46F0BDE8
:10A75000022106AFF954991CC9B288460121581C40
:10A76000C0B2395441460333DBB22B707A5441E70F
:10A7700073780C201D2BE4DC02AB9C460E241D23B9
:10A78000644426306044211C2380FFF79FFE00288C
:10A79000D7D13378022B00D1C1E27378002B03D0DC
:10A7A0009BB208221D2B01D9082223880EA98846B6
:10A7B0004046427002AA527BDBB20232591C9B18FF
:10A7C000DBB202AA01705373B278002A00D02DE2E6
:10A7D000F478002C0ED00222414647460120CA548C
:10A7E000591C9A1CC9B203337854D2B2DBB202A905
:10A7F0004B73BC547268002A31D011781C2B20DDB9
:10A800000C209EE77FF3FFFF7DF30000FFFF0000B9
:10A8100000239946002E00D10DE2F378002B00D0E2
:10A820008EE702AA53733378002BA1D1B378002BA3
:10A8300000D0D9E172680023002A10D011780EAA46
:10A840009046022240464446C2540A205A1CD2B2C4
:10A85000A054DA1C023302A8DBB24273E1543389FC
:10A86000002B00D002E1338A002B00D063E1338B50
:10A87000002B00D0E3E1336A002B4BD002AA527BBD
:10A880000C20911D1F2900D95BE7188883465C4680
:10A890000720052C00D854E7D04F5F44BFB2B8461C
:10A8A000CF4FBC46B84500D84BE75F88BA46052F66
:10A8B00000D846E7C94F6C46B846D0444746A78102
:10A8C000A789674500D83CE7C64FBB4504D0BA45C9
:10A8D00002D0D34500D934E70EA88046052044466F
:10A8E000A054901CC0B202AC60738446122740464C
:10A8F000541CE4B2075560461C8840440470240A86
:10A90000447004325B88D2B2424413701B0A537005
:10A9100002AB5973746A002C2FD002AB27795A7B93
:10A92000BB1C911CDBB2CB180C201F2B00DD08E7F1
:10A930000EAB984603379F544746C9B202AB5973D2
:10A94000531CDBB2F330F854238841440B700432BB
:10A950001B0A4B70D0B202AB5873A288002A0CD0ED
:10A96000A168002900D1EBE6404401F0CDF902AB2B
:10A97000A2885B7BD31802AA53732C23F15C0029B5
:10A9800000D07DE10EAA904602AB5B7B424629785F
:10A990004846FFF797FDD4E663780C201D2B00DDB9
:10A9A000CFE60EAB98461D234246138002AB9C4671
:10A9B000063060444146FFF789FD002800D0C0E61C
:10A9C0002378022B00D1A3E16378002B03D09BB244
:10A9D00008221D2B02D9434608221B8806AF7A7035
:10A9E0002A78DBB20232591C9B18DBB239702B700B
:10A9F000A278002A00D1F9E50C201B2B00D9A0E693
:10AA000001E00EAB98464046FFF75EFD002800D0FF
:10AA100097E6032219212B7806AFFA545A1CD2B2BA
:10AA2000B954424611889A1CD2B2BF180433397007
:10AA3000DBB2090A79702B70D8E50823984606AF77
:10AA4000A04400954046022102223B1CFFF742FD34
:10AA5000002800D075E600954046062110223B1CD8
:10AA6000FFF738FD002800D06BE6DAE50EAB02AA4E
:10AA700098469446341C0D23083463440093201CEC
:10AA8000022102224346FFF725FD002800D058E6A8
:10AA900002AA94460D2363440093201C0621102231
:10AAA0004346FFF717FD002800D04AE6DBE6A36A1D
:10AAB000002B00D144E6002291461632924616320F
:10AAC00028788C46934600E0A36A4A46984652008E
:10AAD0004A4492009044434651469B88421C0333AB
:10AAE000D2B23B54B9544246831CDBB22B7012885D
:10AAF000FB181A70120A5A7043460430C0B228700C
:10AB00009A88002A0FD09968002900D118E63818D1
:10AB100001F0FAF8434698882B78C0185B46E35C4E
:10AB2000C0B29C4628704B460133DBB29946634560
:10AB3000CAD3B9466EE60EAB02AA98469446341CB8
:10AB40000D23103463440093201C0321022243464A
:10AB5000FFF7C0FC002800D0F3E502AA94460D23BD
:10AB600063440093201C072110224346FFF7B2FCE8
:10AB7000002800D0E5E57AE61023984606AFA04409
:10AB800000954046032102223B1CFFF7A3FC00284E
:10AB900000D0D6E500954046072110223B1CFFF768
:10ABA00099FC002800D0CCE53FE51823984606AF75
:10ABB000A04400954046142102223B1CFFF78AFC6A
:10ABC000002800D0BDE500954046152110223B1C11
:10ABD000FFF780FC002800D0B3E52AE57FF3FFFFF4
:10ABE0007DF30000FFFF000002AB0E249C4664448E
:10ABF000201CFFF769FC002800D0A2E50EAA9046B1
:10AC00000322414602AB5B7B4046CA5419215A1CC1
:10AC1000D2B281549A1C2188D2B2424411700433BA
:10AC2000090A5170DBB202AA5373D1E50C201B2B29
:10AC300000D986E5DCE702AB5B7B0022A7E60EAB22
:10AC400002AA98469446341C0D231834634400939A
:10AC5000201C142102224346FFF73CFC002800D0B0
:10AC60006FE502AA94460D2363440093201C15212E
:10AC700010224346FFF72EFC002800D061E5FAE5DC
:10AC8000B46A002C00D15BE503910EA98846162119
:10AC900002AB8A4616315B7B221C00278B4600E004
:10ACA000B26A40467C00E419A4001419A288414607
:10ACB0000332C2549A1CD2B202A84273944652463E
:10ACC000581CC0B20A5462462088424410700433B3
:10ACD000000A5070DBB202AA5373A288002A11D076
:10ACE000A168002900D12BE54344181C01F00CF8A1
:10ACF00002ABA0885B7B02AAC318DBB253735A462F
:10AD0000B25C03920137039AFFB29742C8D33DE683
:10AD100043461B8809221D2B00D85FE654E6238892
:10AD200009221D2B00D841E537E5C04673DF704787
:10AD300074DF7047F8B5002800D198E0002A00D1F0
:10AD400095E000254B4C25704B4C2360069C4B4BEB
:10AD50001C604B4C231CE0CAE0C3E0CAE0C360CADD
:10AD600060C3E368002B00D076E000232372A36960
:10AD7000002B00D178E0E369002B00D174E0051CC2
:10AD800007220F1C3F480021FDF712FA3E4B3F4AB5
:10AD90003F4E1A603F4A00219A60301C3022FDF776
:10ADA00007FA2B782A1C3370AB781032B370EB782B
:10ADB000F3706B787370331C103303CA03C3331CF6
:10ADC000103A083303CA03C3331C0832183303CACA
:10ADD00003C36B6A002B11D02F4B304C7362696A2E
:10ADE0009C600A881A8088889880002806D00023F2
:10ADF0008A68D25CE25401338342F9D1AB6A002BFA
:10AE000014D0274B2748B362A96A98608C889C802D
:10AE10000A881A800023002C05D08A68D25CC254AC
:10AE20000133A342F9D12C23EA5CF2542B6A002BA4
:10AE300006D01D4B33622A6A5188598012881A80C5
:10AE40006B68002B03D0194B73606B687360301C08
:10AE5000391CFFF7ADFBF8BD2369002B00D184E757
:10AE6000A369002B00D086E70023237587E70E2017
:10AE7000F1E7C0463C2600207025002098250020E0
:10AE8000A42500209C250020E8250020C4250020C2
:10AE9000342500201C260020642500207425002075
:10AEA00044260020F825002040260020E42500202C
:10AEB000F0B54746002480B4824D88B0287001A8C0
:10AEC0000194FEF707FB08280BD0002805D1019B51
:10AED000002B07D001227C4B1A7008B004BC9046AE
:10AEE000F0BD0194794B0021181C07229846FDF70C
:10AEF0005FF9774E2C787378764F002B34D13B680E
:10AF0000012C00D1BBE0327A002A02D1022C00D100
:10AF1000BAE0327D002A02D1032C00D1CDE0002B13
:10AF200003D0023C012C00D8B6E000226A4B1A7014
:10AF300002AC1822201C0021FDF73AF900232A78E0
:10AF4000237063602372E360022A50D0032A27D063
:10AF5000012A18D0002A1DD13B68002B02D05F4A7D
:10AF6000107898470020B8E73B68012CCBD15C4AA9
:10AF7000002B62D01470072098472A783B68012A7A
:10AF80005CD0141CBFE7414663822382534B61604F
:10AF900022701A70201CFFF7C9FE0028DCD09CE745
:10AFA000338B2382B38B63824E4B1A79002A17D0DE
:10AFB0003278002A17D04C4A1278002A13D1E36065
:10AFC00004234A48023200212272C370FFF7F0FACC
:10AFD000002800D081E70522404B1A702A78B9E793
:10AFE0001A7B002AE4D103223C4B1A70D2E7338A41
:10AFF0006382B38923823B4B1A79002A16D03278B8
:10B00000002A16D0384A1278002A12D1042637486E
:10B01000023200212272E360C670FFF7C9FA0028ED
:10B0200000D05AE72D4B2A781E7093E71A7B002A2E
:10B03000E5D10222294B1A70ACE713707278002A0E
:10B040001DD042465278002A00D068E742469278E6
:10B05000002A00D063E74246D278002A00D05EE79B
:10B0600042461279002A00D059E742465279002A16
:10B0700000D054E742469279002A00D04FE70222DE
:10B080002A70327A002A16D103222A70327D002AD1
:10B0900013D0002B00D148E73278002A00D144E7D2
:10B0A000114A1278002A00D03FE701210A4A0620FF
:10B0B000117098473CE7022431E70023074A2B70C0
:10B0C000137032E73C2600203D2600209C250020FE
:10B0D000A4250020702500201926002050260020DD
:10B0E00018260020E8250020942500203425002083
:10B0F00008B50388112B35D0192B06D0102B00D0A2
:10B1000008BD82882A4B1A80FAE78379002BF7D191
:10B11000284A1278022A40D0032A35D0012AEFD1DA
:10B1200025490A78002A12D0244B587800283CD1AF
:10B130009878002839D1D878002836D11879002895
:10B1400033D15879002830D19B79002B2DD10220A2
:10B15000FFF7AEFE0028D3D0194B1B68002BCFD0D1
:10B160009847CDE70022174B1A70174B5A68124BBD
:10B170001A700F4B82881B889A42C1D10120FFF7B9
:10B1800097FE0028E8D1BBE7104A1370104B1B68EC
:10B19000002BB5D000209847B2E70C4B03201A7063
:10B1A000FFF786FE0028D7D1AAE7013A0A70E5E743
:10B1B000662000203C2600201A2600209C25002026
:10B1C0009825002094250020A4250020502600204A
:10B1D00070250020F0B54F464646C0B4914C89B06A
:10B1E0002378002B5FD0904D2B78002B5BD18F4FB5
:10B1F0003B78002B5DD10023012601A82E709846D4
:10B200000193FEF767F9082808D0002800D06FE006
:10B21000019B002B04D0864B1E7045E043460193F2
:10B22000844B0021181C07229946FCF7C1FF637864
:10B230003E78002B62D1804B98461B68012E00D1CE
:10B240008FE0227A002A02D1022E00D1ADE0227DC9
:10B25000002A02D1032E00D1BDE0002B03D0023E14
:10B26000012E00D8A9E00022744B1A7002AE1822F9
:10B27000301C0021FCF79CFF00233A783370736088
:10B280003372F360022A19D0032A00D178E0012A30
:10B2900000D16DE0002A26D143461B68002B02D066
:10B2A000674A10789847002009B00CBC9046994630
:10B2B000F0BDFFF73DFD00289DD0F5E7238A73829E
:10B2C000A38933825F4B1A79002A02D11A7B002AA4
:10B2D00006D02278002A03D02A78002A00D190E0F4
:10B2E0000222574B1A70301CFFF720FD0028D3D0E4
:10B2F000554B1B68002BD6D09847D4E74E4B984649
:10B300001B68012E9DD1514A002B09D016700720D1
:10B31000984743463A781B68012A02D0161C90E7EA
:10B3200013706278002A1CD04A465278002A94D1C1
:10B330004A469278002A00D08FE74A46D278002AFF
:10B3400000D08AE74A461279002A00D085E74A46AB
:10B350005279002A00D080E74A469279002A00D02C
:10B360007BE702223A70227A002A1ED0022674E776
:10B37000494673823382324B716032701A70B2E781
:10B38000238B3382A38B73822E4B1A79002A02D12E
:10B390001A7B002A05D02278002A02D02A78002AB7
:10B3A0001ED00322264B1A709DE703223A70227D9D
:10B3B000002A10D0002B00D155E72278002A00D1B6
:10B3C00051E72A78002A00D04DE701211B4A0620C8
:10B3D000117098474AE70023194A3B70137042E7FF
:10B3E000F36004231A48023200213272C370FFF75F
:10B3F000DFF8002800D07BE70522114B1A703A785D
:10B4000048E704241248023200213272F360C4700B
:10B41000FFF7CEF8002800D06AE7094B3A781C7095
:10B4200038E7C046A4250020942500203C260020B3
:10B430003D2600209C250020702500201926002094
:10B4400050260020E82500209825002018260020FE
:10B450003425002075DF704776DF70477ADF70474C
:10B460007BDF704710B5184B82B01888174B984295
:10B4700014D0174A174C13780133DBB21370217BB9
:10B4800099420DD200231370237C002B12D16369E3
:10B49000002B03D0002201A80270984702B010BD13
:10B4A0000D49FFF7D7FF0028F8D0A369002BF5D08E
:10B4B0009847F3E73B21FFF7CFFF0028E7D0A369C8
:10B4C000002BE4D09847E2E780260020FFFF000031
:10B4D0005C260020602600208426002030B51C4B0E
:10B4E0001C4A5B88118883B099420FD852889A42CF
:10B4F0000CD3194B5B69002B03D0012201A8027009
:10B500009847164C0023237003B030BD134C2378AA
:10B51000002B08D0104B5B69002BF3D0002201A850
:10B5200002709847EEE70E4B0B4D1B78002B0CD0AA
:10B53000A9680C4B00221868FDF758FB0028E1D0E1
:10B54000AB69002BDED09847DCE76968F1E7C046BD
:10B55000542600208426002060260020512600204A
:10B560005C2600207C260020164938B5021C0B1CE6
:10B5700032CA32C332CA32C312681A600022124B76
:10B5800001681A70002916D0104C0832201C00F0F7
:10B59000BBFB201CFFF762FF00280BD101220C4BE4
:10B5A00052421A8000220B4B0B481A7000210B4AA2
:10B5B000FDF7E8FA38BD0548FFF752FF0028EDD047
:10B5C000F8E7C0466026002051260020842600208F
:10B5D000802600205C2600207C26002065B4010027
:10B5E00010B50388112B36D022D9122B18D0502B2E
:10B5F0001DD1224CC288E3899A4218D1C38B022BF9
:10B6000015D11E33C35CDB070FD41D4B1868FDF743
:10B610007BFB00280BD0A369002B08D0984706E0DD
:10B62000811D0822174800F06FFBFFF757FF10BD80
:10B63000102BFCD1011C8288134B16311A80114843
:10B64000082200F061FB0022104B1A700B4BDB89C3
:10B65000002BECD1E9E701220B4B52421A80002269
:10B660000A4B1A70064B1868FDF74EFB0028DED017
:10B67000024B9B69002BDAD09847D8E76026002060
:10B680007C26002054260020802600205C260020F6
:10B69000A0DF7047A2DF7047A6DF704763DF704707
:10B6A00010B5002808D0002906D00B88112B16D021
:10B6B000502B02D0102B0FD010BDCB88028A9A429B
:10B6C00011D082889A42F7D18469002CF4D00B1CE7
:10B6D0002031DA8BA047EFE78B888382ECE70123E8
:10B6E0005B428382E8E7CA8B022AEAD12023CA5C44
:10B6F0001F3B134002D001238375DDE78375DBE731
:10B70000F0B54D465F46444656461023F0B495B01A
:10B71000041C0D1C04A87B49102299460E2700F03A
:10B72000F3FA002C0ED0002D0CD001235B42A38233
:10B730002B6804A8A3610023211CA375FFF7AEFFAB
:10B74000071E07D0381C15B03CBC90469946A2464F
:10B75000AB46F0BD237802A98B700123A21C012007
:10B760000B80FFF795FF071EECD1002103226846EE
:10B77000FCF71EFD6B460F221B7892469343012275
:10B7800093465A461343524613401022904642466F
:10B7900013436A4613705378524693435A461343F1
:10B7A00052461340424613436A465370937806222A
:10B7B0009343043A13436A460DAD937000211C2253
:10B7C000281CFCF7F5FC42462B7801AE13432B7086
:10B7D0006B466A466B612378002193730323301C08
:10B7E000938103226F60EF602F61AF61FCF7E0FC93
:10B7F00052463378002193435A461343524613402E
:10B800004246134352463370737808A893435A460E
:10B810001343524613404246134306227370B378D3
:10B820009343043A13430822DBB293434A469343BB
:10B830005A4613431422B370FCF7BAFC03AB6A46B2
:10B8400008930123138514239385231C578560884F
:10B85000291C08AA0C330996FFF71CFF071E00D00D
:10B8600070E700211C22281CFCF7A2FC08232A7880
:10B8700000211343042213436A462B702378301CA3
:10B8800093730223938103226F60EF602F616F61D6
:10B89000AF61FCF78DFC52463378002193435A4642
:10B8A0001343524613404246134352463370737853
:10B8B00008A893435A461343524613404246134343
:10B8C00006227370B3789343043A13430822DBB221
:10B8D00093434A4693435A4613431422B370FCF7EA
:10B8E00067FC03AB6A46089301231385142357852D
:10B8F00093856088231D291C08AA0996FFF7CAFEB4
:10B90000071C1FE74CBE010070B586B06B46041CD7
:10B910000D1CDA80002809D0828A114B08209A4237
:10B9200002D0A37D002B03D106B070BD0E20FBE733
:10B930006B46DB880138142BF6D802AE301C002190
:10B940001022FCF735FCA389A08A33806B460633AE
:10B95000B3600123311CF560B370FFF79DFEE3E790
:10B96000FFFF00001F4B1B78012B00D070471E4BC0
:10B970001B681B07FAD1F0221C4B1B68134018D11F
:10B980001B4B1B6813421AD0174B1B681B07EDD1CA
:10B99000F022164B1B681340402BE7D1144B1B6859
:10B9A0001342E3D1C12380220121DB00D205D15013
:10B9B000DCE7102B0FD10E4B1B681342E8D10D4A68
:10B9C0000D4B1A6080220D4B12021A60054B1B783A
:10B9D000012BD9D0CAE7302BDAD1054B1B681342B3
:10B9E000D6D1ECE7E00F00F0E40F00F0E80F00F034
:10B9F000EC0F00F0DFFF07C004050040186C0040AA
:10BA00002EDF704751DF704710DF704761DF7047EE
:10BA100008B5081C111CFEF74BFC08BDF0B55746D5
:10BA20004E464546E0B4314B314E1D6899466B4257
:10BA30005D41304BB2461C68984663425C412E4FD4
:10BA400082B0EDB2E4B2002D08D0002C27D002B0B5
:10BA50001CBC90469946A246F0BD012401A8FFF700
:10BA6000D1FF052831D000282AD000210022FCF780
:10BA70009DFC002CF1D16A461D4B01A91B889380C7
:10BA80001D4B1C68201CFFF7C1FF0528E5D00028CE
:10BA900010D000210022FCF789FC0024D3E73C6889
:10BAA000338801A9201C0B80FFF7B0FF0528CED0FA
:10BAB0000028EED14346201C1B6898470024C2E7AB
:10BAC0004B4601981B689847D3E7002CBFD15346DB
:10BAD0006A461B8801A99380074B01251C68201C1E
:10BAE000FFF794FF0528D2D1B1E7C0469426002085
:10BAF0008E260020982600209026002038B5041CB1
:10BB00000720002901D08D0700D038BD0948016009
:10BB10000949201C0A80094A09491360FFF774FF8C
:10BB20000028F2D10122074B16301A70FFF768FF88
:10BB3000EBE7C046902600208E2600209C260020A1
:10BB400011BA01008C260020002803D0024B186097
:10BB5000002070470E20FCE79826002008B50A4B0D
:10BB60001B68002B08D09847002800D108BD002191
:10BB70000022FCF71BFCF9E7044B1B78002BF5D0E7
:10BB8000FFF74CFFF2E7C0469C2600208C260020E1
:10BB900003210A4802680A430260094802680A430E
:10BBA00002600849084A094B9B1A03DD043BC85848
:10BBB000D050FBDC0648804706480047240500407B
:10BBC0005405004064BE01000020002068200020D1
:10BBD00065B90100C1800100FEE7FEE7FEE7FEE770
:10BBE000FEE7FEE7002243088B4274D303098B4231
:10BBF0005FD3030A8B4244D3030B8B4228D3030C3D
:10BC00008B420DD3FF22090212BA030C8B4202D3DE
:10BC10001212090265D0030B8B4219D300E0090A06
:10BC2000C30B8B4201D3CB03C01A5241830B8B420F
:10BC300001D38B03C01A5241430B8B4201D34B03F8
:10BC4000C01A5241030B8B4201D30B03C01A52415D
:10BC5000C30A8B4201D3CB02C01A5241830A8B42E2
:10BC600001D38B02C01A5241430A8B4201D34B02CB
:10BC7000C01A5241030A8B4201D30B02C01A52412F
:10BC8000CDD2C3098B4201D3CB01C01A52418309E3
:10BC90008B4201D38B01C01A524143098B4201D31D
:10BCA0004B01C01A524103098B4201D30B01C01A48
:10BCB0005241C3088B4201D3CB00C01A52418308C2
:10BCC0008B4201D38B00C01A524143088B4201D3EF
:10BCD0004B00C01A5241411A00D20146524110464F
:10BCE0007047FFE701B5002000F00CF802BDC04628
:10BCF0000029F7D003B5FFF775FF0EBC4243891A40
:10BD00001847C0467047C046002310B5934203D081
:10BD1000CC5CC4540133F9E710BD0023C25C01338D
:10BD2000002AFBD1581E7047F8B5C046F8BC08BCC5
:10BD30009E467047F8B5C046F8BC08BC9E467047A2
:10BD40004300000000200020A69701009E960100FD
:10BD5000FE9501009E960100F496010038970100BF
:10BD6000BC970100249801006C96010040960100E8
:10BD70001096010040960100109601008A9601007D
:10BD80006A9701006A9701006A9701006A970100AB
:10BD90006A970100FC9701006C960100069801006B
:10BDA000D69601008A9601008A960100109B010038
:10BDB0002C9B0100A49901002C9B0100F499010027
:10BDC0002A9A01005C9A0100A09A0100A89901003A
:10BDD000789901004899010078990100489901007B
:10BDE000D49A0100989B0100989B0100989B010048
:10BDF000989B0100989B0100DE9B0100EA9A0100DC
:10BE0000729B0100CE990100FC9B0100FC9B01008C
:10BE100011000000120000001300000014000000D8
:10BE20001100030025950100120003002595010073
:10BE3000130003002595010014000300259501005F
:10BE40004E6F726469635F55415254009ECADC2490
:0CBE50000EE5A9E093F3A3B50000406EDE
:08BE5C0064C2FF7F0100000039
:10BE640000000000000000000000000000000000CE
:10BE740000000000000000000000000000000000BE
:10BE840040BD0100000000000000000000000000B0
:10BE9400000000000000000000000000000000009E
:10BEA400000000000000000000000000000000008E
:10BEB400000000000000000000000000000000007E
:08BEC40001000200FFFFFFFF77
:040000031000BB919D
:00000001FF
